:0400000002002B329D
:01000B0032C2
:0100130032BA
:01001B0032B2
:030023000206BB17
:05008400E4F508F50998
:030089000200264C
:0500260012054C80FEF4
:0E008C0053877F53892F438920758DFDC29FB6
:0B009A00D29ED29CD28EC299C2982246
:0300A500858299B8
:0500A80010990280FB2D
:0100AD002230
:0500AE0010980280FB28
:0400B3008599822287
:0500B70010980280FB1F
:0A00BC008599821200A58599822221
:0600C600AA82AB83ACF03E
:0E00CC008A828B838CF012073BFD60188D82B8
:0E00DA00C002C003C0041200A5D004D003D0A1
:0800E800020ABA00DF0B80DC04
:0100F00022ED
:0600F100AA82AB83ACF013
:0E00F700C002C003C0041200AEAD82D004D01F
:0E01050003D0028A828B838CF0ED120700BDBE
:040113000D02800752
:070117000ABA00DC0B80D9DD
:0A011E008A828B838CF0E402070054
:0A012800C028858128C082C083E54D
:0C01320081240AF581E5282403F8762BCF
:0A013E00E52824FBF8E5282404F965
:0C014800E6F70809E6F70809E6F7A82822
:0C0154000808E630E712E5282403F876DE
:0C0160002DA82808C3E496F608E496F6E3
:0C016C00E5282404F886040886020886B2
:03017800037D0004
:0E017B00C002C003C004C005740AC0E0E4C0A6
:0C018900E0A82808868208868312075729
:0E019500AE8215811581D005D004D003D002B2
:0E01A30074302E8C828A838BF0120700A3AC7E
:0E01B10082AA830D8D06C002C003C004C005E3
:0C01BF00740AC0E0E4C0E0A828088682B2
:0C01CB00088683120794A82808A6820862
:0E01D700A68315811581D005D004D003D00277
:0B01E500A82808E60846708E8D06E58D
:0C01F000282403F8B62D0E8C828A838B25
:0901FC00F0742D120700ED04FE61
:0B020500EEC313FAA82808E4F608F680
:0C0210008A057F00A82808C3E69D08E6C8
:0E021C0064808FF063F08095F040030202E1F1
:0C022A00C002E5282404F8EE26FBE408DE
:0B02360036FC088605E5282404F8A922
:0C0241002809E726C0E009E70836C0E005
:0C024D0008E6C0E0E528240AF8D0E0F63E
:0C02590018D0E0F618D0E0F6E5282408E4
:0C026500F886820886830886F0E52824CD
:0D02710007F912073BF78B828C838DF0E5B7
:0C027E00282407F8E61207008E077D0018
:05028A001FBFFF011D74
:0C028F00A82808EFC396FFED0896FDE5D7
:0C029B00282404F8EF26FFED0836FD08CB
:0D02A70086028F828D838AF012073BFBE5F3
:0C02B400282408F886820886830886F05B
:0C02C000EB1207008F828D838AF0E52886
:0C02CC002407F8E6120700A8280806B670
:0402D8000002080612
:0502DC00D00202021037
:0C02E100E5282404F8EE26FEE40836FAB6
:0E02ED000886038E828A838BF0E41207008558
:0502FB002881D028223B
:0A030000C028E581F5282404F581EA
:0C030A00AA82AB83ACF07D007E00A82826
:0E03160008762B8A828B838CF012073BFFBF88
:0C0324002D0AA82808762D0ABA00010B4B
:0C033000A8280808A60208A60308A604D6
:0C033C00A828080886820886830886F03E
:0D03480012073BFB6039C003C005C00690E2
:0E035500000A120719AF82AA8315811581D004
:0E03630003EB3395E0FCEB24D0FBEC34FFFC05
:0C037100EB2FFFEC3AFA8F058A06A82853
:08037D00080806B6000208069C
:0203850080B541
:0C038700A82808B62D07C3E49DFDE49EE5
:01039300FE6B
:0A0394008D828E83852881D02822F7
:0A039E00C028E581F5282407F58149
:0C03A800AA82AB83AC280C8C057E007F81
:0E03B40040C004C005C006C0078A828B8312B9
:0E03C2000128158115811581D0047A007B4039
:0C03D0008C828A838BF01200C685288185
:0303DC00D0282204
:0A03DF00C028E581F5282407F58108
:0C03E900AA280A8A037C007D408B828CCD
:0E03F500838DF0C0021200F1D0027B007C402C
:0C0403008A828B838CF012030085288114
:03040F00D02822D0
:0E041200E582FAC4540F90084B93F582C002A5
:0E0420001200A5D002740F5A90084B93F5827B
:03042E000200A524
:0D043100AA82AB838B048C82C002C0031230
:0B043E000412D003D0028A82020412D4
:060449003080FD758A0001
:08044F002080FD7432B58A0023
:040457005002D3225A
:02045B00C322BA
:0A045D00C028E581F5282428F58168
:0E046700AA82AB83ACF05389F1438901D28C99
:08047500758C00758A00C2803D
:08047D0074B5258C50FAD28001
:030485002080FDD7
:030488003080FDC4
:08048B002080FDAD280D7E006C
:03049300BE280080
:0E0496005024EE2DF8C002C003C004C005C003
:0E04A40006C000120449E433D000D006D00593
:0A04B200D004D003D002F60E80D76C
:0E04BC003080FD8A828B838CF0E41207007E74
:0104CA000031
:0304CB00BE080068
:0E04CE00502B8A828B838CF012073B25E0FFB7
:0E04DC008A828B838CF0120700EE2DF8C0058B
:0E04EA00E62FFF8A828B838CF01207000ED063
:0304F8000580D0AC
:0C04FB00E52824FBF8860208860308862A
:0D050700048A828B838CF0E41207007E00D2
:03051400BE08001E
:0E051700502D8A828B838CF012073B25E0FF6B
:0E0525008A828B838CF012070074102E2DF842
:0E053300C005E62FFF8A828B838CF012070032
:050541000ED00580CE84
:06054600852881D0282267
:0A054C00C028E581F5282404F5819C
:0605560075A89012008C54
:04055C007A007B00A6
:0E056000C3EA94E8EB6480948350597C007DDC
:01056E00008C
:0E056F00C3EC9496ED6480948050437401B503
:08057D000806E4B50902800242
:020585008025CF
:08058700C2A1D2A07E1E7F007C
:05058F001EBEFF011F6C
:0A059400EE4F70F7C2A07E467F0014
:05059E001EBEFF011F5D
:0905A300EE4F70F77A64FB800A48
:0A05AC00E50845097004C2A1C2A0D1
:0705B6000CBC00B50D80B282
:0705BD000ABA009F0B809CAD
:0C05C400C2AFC2ACE5282404FA7B007E24
:0C05D00040E5282403FF7C007D40C002B1
:0E05DC00C003C0068F828C838DF012045D1563
:0C05EA008115811581E5282404F88604A1
:0E05F6007D008C828D8312039E90085C75F050
:0B060400801200C67401B50808E4B5C0
:06060F00090474018001E2
:01061500E400
:0B061600FC6022C2A1D2A07D1E7E006D
:050621001DBDFF011EDC
:0A062600ED4E70F7C2A07D467E0085
:050630001DBDFF011ECD
:06063500ED4E70F7800A93
:0A063B00E50845097004C2A1C2A041
:040645007A007B00BC
:0C064900C3EA94E8EB64809483505AA844
:060655002808E4F608F697
:0C065B00A82808C3E6949608E664809482
:0E06670080503DEC6025C2A1D2A07F1E7D0018
:050675001FBFFF011D85
:0A067A00EF4D70F7C2A07D467E0030
:050684001DBDFF011E79
:09068900ED4E70F77A64FB800A63
:0A069200E50845097004C2A1C2A0EA
:09069C00A8280806B600020806B1
:0206A50080B41F
:0706A7000ABA009E0B809BC4
:0B06AE00D2AFD2AC02055C852881D0E1
:0206B9002822F5
:0E06BB00C0E0C002C003C0D075D0001098028D
:0206C900802788
:0A06CB00AA997B008A99E508450909
:0906D5007007750801F509801990
:0A06DE007401B50806E4B5090280B6
:0106E800020F
:0206E900800C83
:0706EB00E4F508F5098005A4
:0506F2001099028000D8
:0906F700D0D0D003D002D0E032D3
:0E084B00303132333435363738394142434488
:0308590045460011
:03085C000D0A0082
:06005A00E478FFF6D8FD7A
:080038007900E94400601B7A25
:050040000090085F784C
:030045000075A0A3
:0A00480000E493F2A308B8000205DB
:08005200A0D9F4DAF275A0FF59
:0E07000020F71030F6118883A88220F507F646
:05070E00A883758300C3
:0107130022C3
:03071400F280F779
:02071700F022CE
:0E07190074FE2581F8E68582F0A4C0E085829A
:0E072700F018E6A4F582D0E025F0C58386F038
:06073500A42583F58322D8
:080060007800E84400600A7911
:030068000075A080
:06006B0000E4F309D8FCDB
:080071007800E84400600C79FE
:0B00790000900000E4F0A3D8FCD9FACE
:03002B00758128B4
:0A002E00120847E582600302002675
:0E073B0020F71430F6148883A88220F507E614
:06074900A8837583002265
:03074F00E280F74E
:03075200E493220B
:02075500E022A0
:0E075700C2D5E58330E70DD2D5E4C39582F517
:0607650082E49583F58398
:0E076B00E58124FEF8E630E70918E4C396F6AF
:04077900E40896F604
:0E077D0086011886001207DB30D50BE4C39509
:08078B0082F582E49583F583F9
:010793002243
:0E079400C2D5E58330E70DD2D5E4C39582F5DA
:0607A20082E49583F5835B
:0E07A800E58124FEF8E630E70AB2D518E4C376
:0507B60096F6E4089630
:0E07BB00F918E6F812082030D50BE4C3958239
:0707C900F582E49583F5833E
:0107D0002206
:0A07D100E58124FEF8860118860079
:0607DB00E84960367A01D6
:0E07E100E825E0F8E933400EF9E58298E5835B
:0607EF009940030A80ECB2
:0207F500C3E956
:0507F70013F9E813F8FE
:0E07FC00C3E58298F5F0E583994005F5838505
:02080A00F0827A
:09080C00C3E913F9E813F8DAE777
:0108150022C0
:0A081600E58124FEF8E6F918E6F883
:050820007A10E4FBFC6E
:0E082500E58225E0F582E58333F583EB33FBB6
:0E083300EC33FCEB98F5F0EC994006FCABF0D2
:03084100438201EE
:03084400DADF22D6
:040847007582002294
:00000001FF
